{
  "contractName": "Exchange",
  "abi": [
    {
      "inputs": [
        {
          "internalType": "address",
          "name": "_feeAccount",
          "type": "address"
        },
        {
          "internalType": "uint256",
          "name": "_feePercent",
          "type": "uint256"
        }
      ],
      "stateMutability": "nonpayable",
      "type": "constructor"
    },
    {
      "anonymous": false,
      "inputs": [
        {
          "indexed": false,
          "internalType": "address",
          "name": "token",
          "type": "address"
        },
        {
          "indexed": false,
          "internalType": "address",
          "name": "user",
          "type": "address"
        },
        {
          "indexed": false,
          "internalType": "uint256",
          "name": "amount",
          "type": "uint256"
        },
        {
          "indexed": false,
          "internalType": "uint256",
          "name": "balance",
          "type": "uint256"
        }
      ],
      "name": "Deposit",
      "type": "event"
    },
    {
      "anonymous": false,
      "inputs": [
        {
          "indexed": false,
          "internalType": "uint256",
          "name": "id",
          "type": "uint256"
        },
        {
          "indexed": false,
          "internalType": "address",
          "name": "user",
          "type": "address"
        },
        {
          "indexed": false,
          "internalType": "address",
          "name": "tokenGet",
          "type": "address"
        },
        {
          "indexed": false,
          "internalType": "uint256",
          "name": "amountGet",
          "type": "uint256"
        },
        {
          "indexed": false,
          "internalType": "address",
          "name": "tokenGive",
          "type": "address"
        },
        {
          "indexed": false,
          "internalType": "uint256",
          "name": "amountGive",
          "type": "uint256"
        },
        {
          "indexed": false,
          "internalType": "uint256",
          "name": "timestamp",
          "type": "uint256"
        }
      ],
      "name": "Order",
      "type": "event"
    },
    {
      "anonymous": false,
      "inputs": [
        {
          "indexed": false,
          "internalType": "uint256",
          "name": "id",
          "type": "uint256"
        },
        {
          "indexed": false,
          "internalType": "address",
          "name": "user",
          "type": "address"
        },
        {
          "indexed": false,
          "internalType": "address",
          "name": "tokenGet",
          "type": "address"
        },
        {
          "indexed": false,
          "internalType": "uint256",
          "name": "amountGet",
          "type": "uint256"
        },
        {
          "indexed": false,
          "internalType": "address",
          "name": "tokenGive",
          "type": "address"
        },
        {
          "indexed": false,
          "internalType": "uint256",
          "name": "amountGive",
          "type": "uint256"
        },
        {
          "indexed": false,
          "internalType": "uint256",
          "name": "timestamp",
          "type": "uint256"
        }
      ],
      "name": "OrderCancelled",
      "type": "event"
    },
    {
      "anonymous": false,
      "inputs": [
        {
          "indexed": false,
          "internalType": "uint256",
          "name": "id",
          "type": "uint256"
        },
        {
          "indexed": false,
          "internalType": "address",
          "name": "user",
          "type": "address"
        },
        {
          "indexed": false,
          "internalType": "address",
          "name": "tokenGet",
          "type": "address"
        },
        {
          "indexed": false,
          "internalType": "uint256",
          "name": "amountGet",
          "type": "uint256"
        },
        {
          "indexed": false,
          "internalType": "address",
          "name": "tokenGive",
          "type": "address"
        },
        {
          "indexed": false,
          "internalType": "uint256",
          "name": "amountGive",
          "type": "uint256"
        },
        {
          "indexed": false,
          "internalType": "address",
          "name": "userFill",
          "type": "address"
        },
        {
          "indexed": false,
          "internalType": "uint256",
          "name": "timestamp",
          "type": "uint256"
        }
      ],
      "name": "Trade",
      "type": "event"
    },
    {
      "anonymous": false,
      "inputs": [
        {
          "indexed": false,
          "internalType": "address",
          "name": "token",
          "type": "address"
        },
        {
          "indexed": false,
          "internalType": "address",
          "name": "user",
          "type": "address"
        },
        {
          "indexed": false,
          "internalType": "uint256",
          "name": "amount",
          "type": "uint256"
        },
        {
          "indexed": false,
          "internalType": "uint256",
          "name": "balance",
          "type": "uint256"
        }
      ],
      "name": "Withdraw",
      "type": "event"
    },
    {
      "stateMutability": "nonpayable",
      "type": "fallback"
    },
    {
      "inputs": [],
      "name": "feeAccount",
      "outputs": [
        {
          "internalType": "address",
          "name": "",
          "type": "address"
        }
      ],
      "stateMutability": "view",
      "type": "function",
      "constant": true
    },
    {
      "inputs": [],
      "name": "feePercent",
      "outputs": [
        {
          "internalType": "uint256",
          "name": "",
          "type": "uint256"
        }
      ],
      "stateMutability": "view",
      "type": "function",
      "constant": true
    },
    {
      "inputs": [
        {
          "internalType": "uint256",
          "name": "",
          "type": "uint256"
        }
      ],
      "name": "orderCancelled",
      "outputs": [
        {
          "internalType": "bool",
          "name": "",
          "type": "bool"
        }
      ],
      "stateMutability": "view",
      "type": "function",
      "constant": true
    },
    {
      "inputs": [],
      "name": "orderCount",
      "outputs": [
        {
          "internalType": "uint256",
          "name": "",
          "type": "uint256"
        }
      ],
      "stateMutability": "view",
      "type": "function",
      "constant": true
    },
    {
      "inputs": [
        {
          "internalType": "uint256",
          "name": "",
          "type": "uint256"
        }
      ],
      "name": "orderFilled",
      "outputs": [
        {
          "internalType": "bool",
          "name": "",
          "type": "bool"
        }
      ],
      "stateMutability": "view",
      "type": "function",
      "constant": true
    },
    {
      "inputs": [
        {
          "internalType": "uint256",
          "name": "",
          "type": "uint256"
        }
      ],
      "name": "orders",
      "outputs": [
        {
          "internalType": "uint256",
          "name": "id",
          "type": "uint256"
        },
        {
          "internalType": "address",
          "name": "user",
          "type": "address"
        },
        {
          "internalType": "address",
          "name": "tokenGet",
          "type": "address"
        },
        {
          "internalType": "uint256",
          "name": "amountGet",
          "type": "uint256"
        },
        {
          "internalType": "address",
          "name": "tokenGive",
          "type": "address"
        },
        {
          "internalType": "uint256",
          "name": "amountGive",
          "type": "uint256"
        },
        {
          "internalType": "uint256",
          "name": "timestamp",
          "type": "uint256"
        }
      ],
      "stateMutability": "view",
      "type": "function",
      "constant": true
    },
    {
      "inputs": [
        {
          "internalType": "address",
          "name": "",
          "type": "address"
        },
        {
          "internalType": "address",
          "name": "",
          "type": "address"
        }
      ],
      "name": "tokens",
      "outputs": [
        {
          "internalType": "uint256",
          "name": "",
          "type": "uint256"
        }
      ],
      "stateMutability": "view",
      "type": "function",
      "constant": true
    },
    {
      "inputs": [
        {
          "internalType": "uint256",
          "name": "_amount",
          "type": "uint256"
        }
      ],
      "name": "WithdrawEther",
      "outputs": [],
      "stateMutability": "nonpayable",
      "type": "function"
    },
    {
      "inputs": [
        {
          "internalType": "address",
          "name": "_token",
          "type": "address"
        },
        {
          "internalType": "uint256",
          "name": "_amount",
          "type": "uint256"
        }
      ],
      "name": "WithdrawToken",
      "outputs": [],
      "stateMutability": "nonpayable",
      "type": "function"
    },
    {
      "inputs": [],
      "name": "depositEther",
      "outputs": [],
      "stateMutability": "payable",
      "type": "function",
      "payable": true
    },
    {
      "inputs": [
        {
          "internalType": "address",
          "name": "_token",
          "type": "address"
        },
        {
          "internalType": "uint256",
          "name": "_amount",
          "type": "uint256"
        }
      ],
      "name": "depositToken",
      "outputs": [],
      "stateMutability": "nonpayable",
      "type": "function"
    },
    {
      "inputs": [
        {
          "internalType": "address",
          "name": "_token",
          "type": "address"
        },
        {
          "internalType": "address",
          "name": "user",
          "type": "address"
        }
      ],
      "name": "balanceOf",
      "outputs": [
        {
          "internalType": "uint256",
          "name": "",
          "type": "uint256"
        }
      ],
      "stateMutability": "view",
      "type": "function",
      "constant": true
    },
    {
      "inputs": [
        {
          "internalType": "address",
          "name": "_tokenGet",
          "type": "address"
        },
        {
          "internalType": "uint256",
          "name": "_amountGet",
          "type": "uint256"
        },
        {
          "internalType": "address",
          "name": "_tokenGive",
          "type": "address"
        },
        {
          "internalType": "uint256",
          "name": "_amountGive",
          "type": "uint256"
        }
      ],
      "name": "makeOrder",
      "outputs": [],
      "stateMutability": "nonpayable",
      "type": "function"
    },
    {
      "inputs": [
        {
          "internalType": "uint256",
          "name": "_id",
          "type": "uint256"
        }
      ],
      "name": "cancelOrder",
      "outputs": [],
      "stateMutability": "nonpayable",
      "type": "function"
    },
    {
      "inputs": [
        {
          "internalType": "uint256",
          "name": "_id",
          "type": "uint256"
        }
      ],
      "name": "fillOrder",
      "outputs": [],
      "stateMutability": "nonpayable",
      "type": "function"
    }
  ],
  "bytecode": "0x608060405234801561001057600080fd5b50604051610f17380380610f1783398101604081905261002f91610058565b600080546001600160a01b0319166001600160a01b039390931692909217909155600155610092565b6000806040838503121561006b57600080fd5b82516001600160a01b038116811461008257600080fd5b6020939093015192949293505050565b610e76806100a16000396000f3fe6080604052600436106100e85760003560e01c806367b830ad1161008a5780639a5c90aa116100595780639a5c90aa14610293578063a85c38ef146102b3578063e9c189661461032d578063f7888aec1461035d576100e8565b806367b830ad146102355780637fd6f15c1461025557806398ea5fca1461026b578063992ee87414610273576100e8565b80634a93e0da116100c65780634a93e0da14610165578063508493bc146101a5578063514fcac7146101dd57806365e17c9d146101fd576100e8565b80632453ffa8146100fa578063338b5dea14610123578063384db9fc14610145575b3480156100f457600080fd5b50600080fd5b34801561010657600080fd5b5061011060045481565b6040519081526020015b60405180910390f35b34801561012f57600080fd5b5061014361013e366004610c57565b6103a3565b005b34801561015157600080fd5b50610143610160366004610c81565b6104cb565b34801561017157600080fd5b50610195610180366004610c81565b60066020526000908152604090205460ff1681565b604051901515815260200161011a565b3480156101b157600080fd5b506101106101c0366004610c9a565b600260209081526000928352604080842090915290825290205481565b3480156101e957600080fd5b506101436101f8366004610c81565b6105c3565b34801561020957600080fd5b5060005461021d906001600160a01b031681565b6040516001600160a01b03909116815260200161011a565b34801561024157600080fd5b50610143610250366004610c81565b610670565b34801561026157600080fd5b5061011060015481565b61014361072b565b34801561027f57600080fd5b5061014361028e366004610c57565b6107ac565b34801561029f57600080fd5b506101436102ae366004610ccd565b610907565b3480156102bf57600080fd5b5061031a6102ce366004610c81565b6003602081905260009182526040909120805460018201546002830154938301546004840154600585015460069095015493956001600160a01b03938416959084169492939091169187565b60405161011a9796959493929190610d11565b34801561033957600080fd5b50610195610348366004610c81565b60056020526000908152604090205460ff1681565b34801561036957600080fd5b50610110610378366004610c9a565b6001600160a01b03918216600090815260026020908152604080832093909416825291909152205490565b6001600160a01b0382166103b657600080fd5b6040516323b872dd60e01b8152336004820152306024820152604481018290526001600160a01b038316906323b872dd906064016020604051808303816000875af1158015610409573d6000803e3d6000fd5b505050506040513d601f19601f8201168201806040525081019061042d9190610d4f565b61043657600080fd5b6001600160a01b03821660009081526002602090815260408083203384529091529020546104649082610a13565b6001600160a01b03831660009081526002602090815260408083203380855292529182902083905590517fdcbc1c05240f31ff3ad067ef1ee35ce4997762752e3a095284754544f4c709d7926104bf92869290918691610d71565b60405180910390a15050565b336000908152600080516020610e2183398151915260205260409020548111156104f457600080fd5b336000908152600080516020610e21833981519152602052604090205461051b9082610a26565b336000818152600080516020610e218339815191526020526040808220939093559151909183156108fc02918491818181858888f19350505050158015610566573d6000803e3d6000fd5b50336000818152600080516020610e2183398151915260205260408082205490517ff341246adaac6f497bc2a656f546ab9e182111d630394f0c57c710a59a2cb567936105b893929091869190610d71565b60405180910390a150565b600081815260036020526040902060018101546001600160a01b031633146105ea57600080fd5b805482146105f757600080fd5b600082815260056020819052604091829020805460ff19166001179055825460028401546003850154600486015493860154600687015495517f0fc466a139855d3b21f9eb9dfdadd9dfdaf9b58bd400756b26083b7077055e27966104bf9633956001600160a01b039081169594911692909190610d11565b60008111801561068257506004548111155b61068b57600080fd5b60008181526005602052604090205460ff16156106a757600080fd5b60008181526006602052604090205460ff16156106c357600080fd5b60008181526003602081905260409091208054600182015460028301549383015460048401546005850154949561070e956001600160a01b0394851694918216939290911690610a32565b546000908152600660205260409020805460ff1916600117905550565b336000908152600080516020610e2183398151915260205260409020546107529034610a13565b336000818152600080516020610e218339815191526020526040808220849055517fdcbc1c05240f31ff3ad067ef1ee35ce4997762752e3a095284754544f4c709d7936107a29391349190610d71565b60405180910390a1565b6001600160a01b0382166107bf57600080fd5b6001600160a01b03821660009081526002602090815260408083203384529091529020548111156107ef57600080fd5b6001600160a01b038216600090815260026020908152604080832033845290915290205461081d9082610a26565b6001600160a01b038316600081815260026020908152604080832033808552925291829020939093555163a9059cbb60e01b81526004810192909252602482018390529063a9059cbb906044016020604051808303816000875af1158015610889573d6000803e3d6000fd5b505050506040513d601f19601f820116820180604052508101906108ad9190610d4f565b6108b657600080fd5b336000818152600080516020610e218339815191526020526040908190205490517ff341246adaac6f497bc2a656f546ab9e182111d630394f0c57c710a59a2cb567926104bf928692869190610d71565b600454610915906001610a13565b60048181556040805160e0810182528381523360208083018281526001600160a01b038b8116858701908152606086018c81528b83166080880190815260a088018c81524260c08a0181815260009d8e526003988990529c8b902099518a55955160018a0180549187166001600160a01b0319928316179055935160028a01805491871691861691909117905591519588019590955593518689018054919093169116179055905160058401559451600690920191909155915490517f9d33853d43e3607b4cc01fdc78338ff2dca6fef7db9232dae6d3eb55fbc3b10993610a0593918991899189918991610d11565b60405180910390a150505050565b6000610a1f8284610db0565b9392505050565b6000610a1f8284610dc8565b6000610a546064610a4e60015485610c2390919063ffffffff16565b90610c2f565b9050610a8d610a638583610a13565b6001600160a01b038716600090815260026020908152604080832033845290915290205490610a26565b6001600160a01b0386811660009081526002602090815260408083203384529091528082209390935590881681522054610ac79085610a13565b6001600160a01b0386811660009081526002602090815260408083208b8516845290915280822093909355805490911681522054610b059082610a13565b6001600160a01b0380871660009081526002602081815260408084208454861685528252808420959095558784168352908152838220928a168252919091522054610b509083610a26565b6001600160a01b038481166000908152600260209081526040808320938b16835292905281812092909255338252902054610b8b9083610a13565b6001600160a01b03848116600081815260026020908152604080832033808552908352928190209590955584518c81528b8516918101919091529289168385015260608301889052608083019190915260a0820185905260c08201524260e082015290517f0dddf4182dc0fc1a311cb75f049c97403c6b8a99cf6b2229a36e7c526acb3f81918190036101000190a150505050505050565b6000610a1f8284610ddf565b6000610a1f8284610dfe565b80356001600160a01b0381168114610c5257600080fd5b919050565b60008060408385031215610c6a57600080fd5b610c7383610c3b565b946020939093013593505050565b600060208284031215610c9357600080fd5b5035919050565b60008060408385031215610cad57600080fd5b610cb683610c3b565b9150610cc460208401610c3b565b90509250929050565b60008060008060808587031215610ce357600080fd5b610cec85610c3b565b935060208501359250610d0160408601610c3b565b9396929550929360600135925050565b9687526001600160a01b03958616602088015293851660408701526060860192909252909216608084015260a083019190915260c082015260e00190565b600060208284031215610d6157600080fd5b81518015158114610a1f57600080fd5b6001600160a01b0394851681529290931660208301526040820152606081019190915260800190565b634e487b7160e01b600052601160045260246000fd5b60008219821115610dc357610dc3610d9a565b500190565b600082821015610dda57610dda610d9a565b500390565b6000816000190483118215151615610df957610df9610d9a565b500290565b600082610e1b57634e487b7160e01b600052601260045260246000fd5b50049056feac33ff75c19e70fe83507db0d683fd3465c996598dc972688b7ace676c89077ba264697066735822122041a94f3e8259b33f1aa4dcbc4484a8cd8bfcd65bfc00e5ebd46a5c3a3aef557a64736f6c634300080b0033",
  "immutableReferences": {},
  "source": "// SPDX-License-Identifier: MIT\r\npragma solidity ^0.8.1;\r\nimport \"./Tachyontoken.sol\";\r\nimport \"@openzeppelin/contracts/utils/math/SafeMath.sol\";\r\n\r\n\r\n// Functionality :\r\n\r\n//  Set a fee Ac;       -- tested\r\n//  Deposit Ether;      -- tested\r\n//  Withdraw Ether;     -- tested\r\n//  Deposit Tokens;     -- tested\r\n//  Withdraw Tokens;    -- tested\r\n//  Check Balances;     -- tested\r\n//  Make order;         -- tested\r\n//  Cancel Order;       -- tested\r\n//  Fill Order;\r\n//  Charge Fees;\r\n\r\ncontract Exchange{\r\n    using SafeMath for uint;\r\n\r\n\r\n    address public feeAccount;\r\n    uint256 public feePercent;\r\n    address constant ETHER = address(0); //sets the address as blank, helps store ether in tokens mapping\r\n    mapping(address => mapping(address => uint))public tokens;\r\n    mapping(uint256 => _Order) public orders;  \r\n    uint256 public orderCount;\r\n    mapping(uint256 => bool) public orderCancelled;\r\n    mapping(uint256 => bool) public orderFilled;\r\n\r\n\r\n        //Events\r\n\r\n        event Deposit        (address token, address user, uint256 amount, uint256 balance);\r\n        event Withdraw       (address token, address user, uint256 amount, uint256 balance);\r\n        event Order          (uint id, address user, address tokenGet,uint amountGet, address tokenGive, uint amountGive,  uint timestamp);\r\n        event OrderCancelled (uint id, address user, address tokenGet,uint amountGet, address tokenGive, uint amountGive,  uint timestamp);\r\n        event Trade          (uint id, address user, address tokenGet,uint amountGet, address tokenGive, uint amountGive, address userFill, uint timestamp);    \r\n        \r\n\r\n        struct _Order{\r\n            uint    id;\r\n            address user;\r\n            address tokenGet;\r\n            uint    amountGet;\r\n            address tokenGive;\r\n            uint    amountGive;\r\n            uint    timestamp;\r\n        }\r\n\r\n\r\n        constructor(address _feeAccount, uint256 _feePercent) {\r\n            feeAccount = _feeAccount;\r\n            feePercent = _feePercent;\r\n\r\n        }\r\n\r\n    fallback() external{\r\n        revert();\r\n    }\r\n\r\n    function WithdrawEther(uint _amount) public  {\r\n        require(tokens[ETHER][msg.sender] >= _amount);\r\n        tokens[ETHER][msg.sender] = tokens[ETHER][msg.sender].sub(_amount);\r\n        payable(msg.sender).transfer(_amount);\r\n        emit Withdraw(ETHER, msg.sender, _amount, tokens[ETHER][msg.sender]);\r\n    }\r\n\r\n    function WithdrawToken(address _token, uint _amount)public {\r\n        require(_token != ETHER);\r\n        require(tokens[_token][msg.sender] >= _amount);\r\n        tokens[_token][msg.sender] = tokens[_token][msg.sender].sub(_amount);\r\n        require(Tachyontoken(_token).transfer(msg.sender,_amount));\r\n         emit Withdraw(_token, msg.sender, _amount, tokens[ETHER][msg.sender]);\r\n\r\n    }\r\n\r\n    function depositEther() public payable{\r\n        tokens[ETHER][msg.sender] = tokens[ETHER][msg.sender].add(msg.value);\r\n        emit Deposit(ETHER, msg.sender, msg.value, tokens[ETHER][msg.sender]);\r\n    }\r\n\r\n    function depositToken(address _token, uint _amount)public {\r\n        require(_token != ETHER);\r\n        require(Tachyontoken(_token).transferFrom(msg.sender, address(this),_amount));\r\n        tokens[_token][msg.sender] = tokens[_token][msg.sender].add(_amount);\r\n        emit Deposit(_token, msg.sender, _amount, tokens[_token][msg.sender]);\r\n\r\n    }\r\n\r\n\r\n    function balanceOf(address _token, address user) public view returns(uint256){\r\n        return tokens[_token][user];\r\n    }\r\n\r\n    function makeOrder(address _tokenGet, uint _amountGet, address _tokenGive, uint _amountGive)public {\r\n        orderCount = orderCount.add(1);\r\n        orders[orderCount] = _Order(orderCount, msg.sender, _tokenGet,_amountGet, _tokenGive, _amountGive, block.timestamp);\r\n        emit Order(orderCount, msg.sender, _tokenGet,_amountGet, _tokenGive, _amountGive, block.timestamp);\r\n    }\r\n\r\n\r\n    function cancelOrder(uint256 _id) public{\r\n        _Order storage _order = orders[_id];\r\n        require(address(_order.user) == msg.sender);\r\n        require(_order.id == _id);\r\n        orderCancelled[_id] = true;\r\n        emit OrderCancelled(_order.id, msg.sender,  _order.tokenGet, _order.amountGet,  _order.tokenGive,  _order.amountGive,  _order.timestamp);\r\n    }\r\n\r\n\r\n    function fillOrder(uint _id) public{\r\n        require(_id > 0 && _id <= orderCount);\r\n        require(!orderCancelled[_id]);\r\n        require(!orderFilled[_id]);\r\n        _Order storage _order = orders[_id];\r\n        _trade(_order.id, _order.user,  _order.tokenGet, _order.amountGet,  _order.tokenGive,  _order.amountGive);\r\n        orderFilled[_order.id] = true;\r\n            }\r\n\r\n    function _trade(uint _orderid, address _user, address _tokenGet, uint _amountGet, address _tokenGive, uint _amountGive)internal{\r\n        // fee is given by the person who fills order       \r\n        uint _feeAmount = _amountGive.mul(feePercent).div(100);\r\n\r\n        tokens[_tokenGet][msg.sender] = tokens[_tokenGet][msg.sender].sub(_amountGet.add(_feeAmount));\r\n        tokens[_tokenGet][_user] = tokens[_tokenGet][_user].add(_amountGet);\r\n        tokens[_tokenGet][feeAccount] = tokens[_tokenGet][feeAccount].add(_feeAmount);\r\n        tokens[_tokenGive][_user] = tokens[_tokenGive][_user].sub(_amountGive);\r\n        tokens[_tokenGive][msg.sender] = tokens[_tokenGive][msg.sender].add(_amountGive);\r\n        \r\n        emit Trade(_orderid, _user,  _tokenGet, _amountGet,  _tokenGive,  _amountGive, msg.sender,  block.timestamp);\r\n    }\r\n\r\n}\r\n",
  "sourcePath": "E:\\Github proj\\Dex\\contracts\\Exchange.sol",
  "compiler": {
    "name": "solc",
    "version": "0.8.11+commit.d7f03943.Emscripten.clang"
  },
  "schemaVersion": "3.4.3",
  "updatedAt": "2022-01-18T11:18:59.008Z",
  "networkType": "ethereum",
  "devdoc": {
    "kind": "dev",
    "methods": {},
    "version": 1
  },
  "userdoc": {
    "kind": "user",
    "methods": {},
    "version": 1
  }
}