{
  "contractName": "Tachyontoken",
  "abi": [
    {
      "inputs": [],
      "stateMutability": "nonpayable",
      "type": "constructor"
    },
    {
      "anonymous": false,
      "inputs": [
        {
          "indexed": true,
          "internalType": "address",
          "name": "_owner",
          "type": "address"
        },
        {
          "indexed": true,
          "internalType": "address",
          "name": "_spender",
          "type": "address"
        },
        {
          "indexed": false,
          "internalType": "uint256",
          "name": "_value",
          "type": "uint256"
        }
      ],
      "name": "Approval",
      "type": "event"
    },
    {
      "anonymous": false,
      "inputs": [
        {
          "indexed": true,
          "internalType": "address",
          "name": "_from",
          "type": "address"
        },
        {
          "indexed": true,
          "internalType": "address",
          "name": "_to",
          "type": "address"
        },
        {
          "indexed": false,
          "internalType": "uint256",
          "name": "_value",
          "type": "uint256"
        }
      ],
      "name": "Transfer",
      "type": "event"
    },
    {
      "inputs": [],
      "name": "admin",
      "outputs": [
        {
          "internalType": "address",
          "name": "",
          "type": "address"
        }
      ],
      "stateMutability": "view",
      "type": "function",
      "constant": true
    },
    {
      "inputs": [
        {
          "internalType": "address",
          "name": "",
          "type": "address"
        },
        {
          "internalType": "address",
          "name": "",
          "type": "address"
        }
      ],
      "name": "allowance",
      "outputs": [
        {
          "internalType": "uint256",
          "name": "",
          "type": "uint256"
        }
      ],
      "stateMutability": "view",
      "type": "function",
      "constant": true
    },
    {
      "inputs": [
        {
          "internalType": "address",
          "name": "",
          "type": "address"
        }
      ],
      "name": "balanceOf",
      "outputs": [
        {
          "internalType": "uint256",
          "name": "",
          "type": "uint256"
        }
      ],
      "stateMutability": "view",
      "type": "function",
      "constant": true
    },
    {
      "inputs": [],
      "name": "decimals",
      "outputs": [
        {
          "internalType": "uint256",
          "name": "",
          "type": "uint256"
        }
      ],
      "stateMutability": "view",
      "type": "function",
      "constant": true
    },
    {
      "inputs": [],
      "name": "name",
      "outputs": [
        {
          "internalType": "string",
          "name": "",
          "type": "string"
        }
      ],
      "stateMutability": "view",
      "type": "function",
      "constant": true
    },
    {
      "inputs": [],
      "name": "symbol",
      "outputs": [
        {
          "internalType": "string",
          "name": "",
          "type": "string"
        }
      ],
      "stateMutability": "view",
      "type": "function",
      "constant": true
    },
    {
      "inputs": [],
      "name": "totalSupply",
      "outputs": [
        {
          "internalType": "uint256",
          "name": "",
          "type": "uint256"
        }
      ],
      "stateMutability": "view",
      "type": "function",
      "constant": true
    },
    {
      "inputs": [
        {
          "internalType": "address",
          "name": "_to",
          "type": "address"
        },
        {
          "internalType": "uint256",
          "name": "_amount",
          "type": "uint256"
        }
      ],
      "name": "transfer",
      "outputs": [
        {
          "internalType": "bool",
          "name": "success",
          "type": "bool"
        }
      ],
      "stateMutability": "nonpayable",
      "type": "function"
    },
    {
      "inputs": [
        {
          "internalType": "address",
          "name": "_from",
          "type": "address"
        },
        {
          "internalType": "address",
          "name": "_to",
          "type": "address"
        },
        {
          "internalType": "uint256",
          "name": "_amount",
          "type": "uint256"
        }
      ],
      "name": "transferFrom",
      "outputs": [
        {
          "internalType": "bool",
          "name": "success",
          "type": "bool"
        }
      ],
      "stateMutability": "nonpayable",
      "type": "function"
    },
    {
      "inputs": [
        {
          "internalType": "address",
          "name": "spender",
          "type": "address"
        },
        {
          "internalType": "uint256",
          "name": "amount",
          "type": "uint256"
        }
      ],
      "name": "approve",
      "outputs": [
        {
          "internalType": "bool",
          "name": "success",
          "type": "bool"
        }
      ],
      "stateMutability": "nonpayable",
      "type": "function"
    }
  ],
  "bytecode": "0x60c060405260076080819052662a20a1a42ca7a760c91b60a09081526200002a9160019190620000a5565b506040805180820190915260038082526254414360e81b60209092019182526200005791600291620000a5565b5060126004553480156200006a57600080fd5b506004546200007b90600a62000260565b6200008a90620f424062000275565b600381905533600090815260056020526040902055620002d4565b828054620000b39062000297565b90600052602060002090601f016020900481019282620000d7576000855562000122565b82601f10620000f257805160ff191683800117855562000122565b8280016001018555821562000122579182015b828111156200012257825182559160200191906001019062000105565b506200013092915062000134565b5090565b5b8082111562000130576000815560010162000135565b634e487b7160e01b600052601160045260246000fd5b600181815b80851115620001a25781600019048211156200018657620001866200014b565b808516156200019457918102915b93841c939080029062000166565b509250929050565b600082620001bb575060016200025a565b81620001ca575060006200025a565b8160018114620001e35760028114620001ee576200020e565b60019150506200025a565b60ff8411156200020257620002026200014b565b50506001821b6200025a565b5060208310610133831016604e8410600b841016171562000233575081810a6200025a565b6200023f838362000161565b80600019048211156200025657620002566200014b565b0290505b92915050565b60006200026e8383620001aa565b9392505050565b60008160001904831182151516156200029257620002926200014b565b500290565b600181811c90821680620002ac57607f821691505b60208210811415620002ce57634e487b7160e01b600052602260045260246000fd5b50919050565b61067180620002e46000396000f3fe608060405234801561001057600080fd5b506004361061009e5760003560e01c806370a082311161006657806370a082311461011757806395d89b4114610137578063a9059cbb1461013f578063dd62ed3e14610152578063f851a4401461017d57600080fd5b806306fdde03146100a3578063095ea7b3146100c157806318160ddd146100e457806323b872dd146100fb578063313ce5671461010e575b600080fd5b6100ab6101a8565b6040516100b89190610496565b60405180910390f35b6100d46100cf366004610507565b610236565b60405190151581526020016100b8565b6100ed60035481565b6040519081526020016100b8565b6100d4610109366004610531565b6102af565b6100ed60045481565b6100ed61012536600461056d565b60056020526000908152604090205481565b6100ab61036c565b6100d461014d366004610507565b610379565b6100ed610160366004610588565b600660209081526000928352604080842090915290825290205481565b600054610190906001600160a01b031681565b6040516001600160a01b0390911681526020016100b8565b600180546101b5906105bb565b80601f01602080910402602001604051908101604052809291908181526020018280546101e1906105bb565b801561022e5780601f106102035761010080835404028352916020019161022e565b820191906000526020600020905b81548152906001019060200180831161021157829003601f168201915b505050505081565b60006001600160a01b03831661024b57600080fd5b3360008181526006602090815260408083206001600160a01b03881680855290835292819020869055518581529192917f8c5be1e5ebec7d5bd14f71427d1e84f3dd0314c0f7b2291e5b200ac8c7c3b925910160405180910390a350600192915050565b6001600160a01b0383166000908152600560205260408120548211156102d457600080fd5b6001600160a01b038416600090815260066020908152604080832033845290915290205482111561030457600080fd5b6001600160a01b038416600090815260066020908152604080832033845290915290205461033290836103aa565b6001600160a01b03851660009081526006602090815260408083203384529091529020556103618484846103bd565b506001949350505050565b600280546101b5906105bb565b3360009081526005602052604081205482111561039557600080fd5b6103a03384846103bd565b5060019392505050565b60006103b6828461060c565b9392505050565b60006001600160a01b0383166103d257600080fd5b6001600160a01b0384166000908152600560205260409020546103f590836103aa565b6001600160a01b038086166000908152600560205260408082209390935590851681522054610424908361048a565b6001600160a01b0380851660008181526005602052604090819020939093559151908616907fddf252ad1be2c89b69c2b068fc378daa952ba7f163c4a11628f55a4df523b3ef906104789086815260200190565b60405180910390a35060019392505050565b60006103b68284610623565b600060208083528351808285015260005b818110156104c3578581018301518582016040015282016104a7565b818111156104d5576000604083870101525b50601f01601f1916929092016040019392505050565b80356001600160a01b038116811461050257600080fd5b919050565b6000806040838503121561051a57600080fd5b610523836104eb565b946020939093013593505050565b60008060006060848603121561054657600080fd5b61054f846104eb565b925061055d602085016104eb565b9150604084013590509250925092565b60006020828403121561057f57600080fd5b6103b6826104eb565b6000806040838503121561059b57600080fd5b6105a4836104eb565b91506105b2602084016104eb565b90509250929050565b600181811c908216806105cf57607f821691505b602082108114156105f057634e487b7160e01b600052602260045260246000fd5b50919050565b634e487b7160e01b600052601160045260246000fd5b60008282101561061e5761061e6105f6565b500390565b60008219821115610636576106366105f6565b50019056fea264697066735822122046c785ed1df646c8bf5b71fdd8200ddb572695dc20fc3e1ee1cc67709197edfd64736f6c634300080b0033",
  "immutableReferences": {},
  "source": "// SPDX-License-Identifier: MIT\r\npragma solidity^0.8.1;\r\n\r\n// import \"@openzeppelin/contracts/token/ERC20/ERC20.sol\";\r\nimport \"@openzeppelin/contracts/utils/math/SafeMath.sol\";\r\n\r\n\r\ncontract Tachyontoken {\r\n    using SafeMath for uint;\r\n    address public admin;\r\n    string  public name = \"TACHYON\";\r\n    string  public symbol = \"TAC\";\r\n    uint256 public totalSupply;  // 1 million tokens\r\n    uint256 public decimals = 18;\r\n\r\n    constructor() {\r\n        totalSupply = 1000000 * ( 10 ** decimals);\r\n        balanceOf[msg.sender] = totalSupply;\r\n    }\r\n    \r\n    // constructor() ERC20('TACHYON','TAC'){\r\n    //     _mint(msg.sender,1000000 * 10 ** 18);\r\n    //     admin = msg.sender;\r\n        \r\n    // }\r\n\r\n    event Transfer(\r\n        address indexed _from,\r\n        address indexed _to,\r\n        uint256 _value\r\n    );\r\n\r\n    event Approval(address indexed _owner,\r\n        address indexed _spender,\r\n        uint256 _value);\r\n\r\n\r\n    mapping(address => uint256)public balanceOf;\r\n    mapping(address => mapping(address => uint256))public allowance;\r\n    \r\n\r\n       function transfer(address _to, uint256 _amount) public returns(bool success){\r\n        require(balanceOf[msg.sender] >= _amount);\r\n        _transfer(msg.sender,_to,_amount);\r\n        return true;\r\n\r\n       }\r\n\r\n       function _transfer(address _from, address _to, uint _amount) internal returns(bool success){\r\n        require(_to != address(0));\r\n        balanceOf[_from] = balanceOf[_from].sub(_amount);\r\n        balanceOf[_to] = balanceOf[_to].add(_amount);\r\n        emit Transfer(_from, _to, _amount);\r\n        return true;\r\n\r\n       }\r\n\r\n       function transferFrom(address _from, address _to, uint _amount)public returns(bool success){\r\n        require(_amount <= balanceOf[_from]);\r\n        require(_amount <= allowance[_from][msg.sender]);\r\n        allowance[_from][msg.sender] = allowance[_from][msg.sender].sub(_amount);\r\n        _transfer(_from, _to, _amount);\r\n        return true;\r\n       }\r\n\r\n        function approve(address spender, uint256 amount) public  returns (bool success) {\r\n         require(spender != address(0));\r\n         allowance[msg.sender][spender] = amount;\r\n         emit Approval(msg.sender, spender, amount);\r\n         return true;\r\n     }\r\n\r\n\r\n\r\n\r\n    // function mint(address to, uint amount) external {\r\n    //     require(msg.sender == admin, \"Access denied\");\r\n    //     _mint(to,amount);\r\n    // }\r\n    \r\n    // function burn(uint amount) external {\r\n    //     _burn(msg.sender, amount);\r\n    // }\r\n    \r\n\r\n      \r\n}",
  "sourcePath": "E:\\Github proj\\Dex\\contracts\\Tachyontoken.sol",
  "compiler": {
    "name": "solc",
    "version": "0.8.11+commit.d7f03943.Emscripten.clang"
  },
  "schemaVersion": "3.4.3",
  "updatedAt": "2022-01-18T11:18:58.998Z",
  "networkType": "ethereum",
  "devdoc": {
    "kind": "dev",
    "methods": {},
    "version": 1
  },
  "userdoc": {
    "kind": "user",
    "methods": {},
    "version": 1
  }
}